{
  "contractName": "BookFactory",
  "abi": [
    {
      "constant": true,
      "inputs": [
        {
          "name": "",
          "type": "uint256"
        }
      ],
      "name": "bookToOwner",
      "outputs": [
        {
          "name": "",
          "type": "address"
        }
      ],
      "payable": false,
      "stateMutability": "view",
      "type": "function"
    },
    {
      "constant": true,
      "inputs": [
        {
          "name": "",
          "type": "uint256"
        }
      ],
      "name": "books",
      "outputs": [
        {
          "name": "title",
          "type": "string"
        },
        {
          "name": "author",
          "type": "string"
        },
        {
          "name": "description",
          "type": "string"
        },
        {
          "name": "categories",
          "type": "string"
        },
        {
          "name": "IPFS_hash",
          "type": "string"
        },
        {
          "name": "price",
          "type": "uint256"
        }
      ],
      "payable": false,
      "stateMutability": "view",
      "type": "function"
    },
    {
      "anonymous": false,
      "inputs": [
        {
          "indexed": false,
          "name": "message",
          "type": "int256"
        }
      ],
      "name": "bookAdded",
      "type": "event"
    },
    {
      "anonymous": false,
      "inputs": [
        {
          "indexed": false,
          "name": "IPFS_hash",
          "type": "string"
        },
        {
          "indexed": false,
          "name": "private_key",
          "type": "string"
        }
      ],
      "name": "bookDownload",
      "type": "event"
    },
    {
      "constant": false,
      "inputs": [
        {
          "name": "_title",
          "type": "string"
        },
        {
          "name": "_author",
          "type": "string"
        },
        {
          "name": "_description",
          "type": "string"
        },
        {
          "name": "_categories",
          "type": "string"
        },
        {
          "name": "_IPFShash",
          "type": "string"
        },
        {
          "name": "_price",
          "type": "uint256"
        },
        {
          "name": "_private_key",
          "type": "string"
        }
      ],
      "name": "uploadBook",
      "outputs": [],
      "payable": false,
      "stateMutability": "nonpayable",
      "type": "function"
    },
    {
      "constant": false,
      "inputs": [
        {
          "name": "_bookId",
          "type": "uint256"
        }
      ],
      "name": "downloadBook",
      "outputs": [
        {
          "name": "",
          "type": "string"
        },
        {
          "name": "",
          "type": "string"
        }
      ],
      "payable": true,
      "stateMutability": "payable",
      "type": "function"
    }
  ],
  "bytecode": "0x6080604052600a60025534801561001557600080fd5b50611035806100256000396000f300608060405260043610610062576000357c0100000000000000000000000000000000000000000000000000000000900463ffffffff1680630707d14c1461006757806368744046146100d45780638dc3ae0814610331578063e84465d714610502575b600080fd5b34801561007357600080fd5b5061009260048036038101908080359060200190929190505050610607565b604051808273ffffffffffffffffffffffffffffffffffffffff1673ffffffffffffffffffffffffffffffffffffffff16815260200191505060405180910390f35b3480156100e057600080fd5b506100ff6004803603810190808035906020019092919050505061063a565b60405180806020018060200180602001806020018060200187815260200186810386528c818151815260200191508051906020019080838360005b8381101561015557808201518184015260208101905061013a565b50505050905090810190601f1680156101825780820380516001836020036101000a031916815260200191505b5086810385528b818151815260200191508051906020019080838360005b838110156101bb5780820151818401526020810190506101a0565b50505050905090810190601f1680156101e85780820380516001836020036101000a031916815260200191505b5086810384528a818151815260200191508051906020019080838360005b83811015610221578082015181840152602081019050610206565b50505050905090810190601f16801561024e5780820380516001836020036101000a031916815260200191505b50868103835289818151815260200191508051906020019080838360005b8381101561028757808201518184015260208101905061026c565b50505050905090810190601f1680156102b45780820380516001836020036101000a031916815260200191505b50868103825288818151815260200191508051906020019080838360005b838110156102ed5780820151818401526020810190506102d2565b50505050905090810190601f16801561031a5780820380516001836020036101000a031916815260200191505b509b50505050505050505050505060405180910390f35b34801561033d57600080fd5b50610500600480360381019080803590602001908201803590602001908080601f0160208091040260200160405190810160405280939291908181526020018383808284378201915050505050509192919290803590602001908201803590602001908080601f0160208091040260200160405190810160405280939291908181526020018383808284378201915050505050509192919290803590602001908201803590602001908080601f0160208091040260200160405190810160405280939291908181526020018383808284378201915050505050509192919290803590602001908201803590602001908080601f0160208091040260200160405190810160405280939291908181526020018383808284378201915050505050509192919290803590602001908201803590602001908080601f016020809104026020016040519081016040528093929190818152602001838380828437820191505050505050919291929080359060200190929190803590602001908201803590602001908080601f016020809104026020016040519081016040528093929190818152602001838380828437820191505050505050919291929050505061097d565b005b61052060048036038101908080359060200190929190505050610bb6565b604051808060200180602001838103835285818151815260200191508051906020019080838360005b83811015610564578082015181840152602081019050610549565b50505050905090810190601f1680156105915780820380516001836020036101000a031916815260200191505b50838103825284818151815260200191508051906020019080838360005b838110156105ca5780820151818401526020810190506105af565b50505050905090810190601f1680156105f75780820380516001836020036101000a031916815260200191505b5094505050505060405180910390f35b60046020528060005260406000206000915054906101000a900473ffffffffffffffffffffffffffffffffffffffff1681565b60008181548110151561064957fe5b9060005260206000209060060201600091509050806000018054600181600116156101000203166002900480601f0160208091040260200160405190810160405280929190818152602001828054600181600116156101000203166002900480156106f55780601f106106ca576101008083540402835291602001916106f5565b820191906000526020600020905b8154815290600101906020018083116106d857829003601f168201915b505050505090806001018054600181600116156101000203166002900480601f0160208091040260200160405190810160405280929190818152602001828054600181600116156101000203166002900480156107935780601f1061076857610100808354040283529160200191610793565b820191906000526020600020905b81548152906001019060200180831161077657829003601f168201915b505050505090806002018054600181600116156101000203166002900480601f0160208091040260200160405190810160405280929190818152602001828054600181600116156101000203166002900480156108315780601f1061080657610100808354040283529160200191610831565b820191906000526020600020905b81548152906001019060200180831161081457829003601f168201915b505050505090806003018054600181600116156101000203166002900480601f0160208091040260200160405190810160405280929190818152602001828054600181600116156101000203166002900480156108cf5780601f106108a4576101008083540402835291602001916108cf565b820191906000526020600020905b8154815290600101906020018083116108b257829003601f168201915b505050505090806004018054600181600116156101000203166002900480601f01602080910402602001604051908101604052809291908181526020018280546001816001161561010002031660029004801561096d5780601f106109425761010080835404028352916020019161096d565b820191906000526020600020905b81548152906001019060200180831161095057829003601f168201915b5050505050908060050154905086565b60008060008410158015610992575060008851115b801561099f575060008851115b15610b72573391506001600060c0604051908101604052808c81526020018b81526020018a815260200189815260200188815260200187815250908060018154018082558091505090600182039060005260206000209060060201600090919290919091506000820151816000019080519060200190610a20929190610ee4565b506020820151816001019080519060200190610a3d929190610ee4565b506040820151816002019080519060200190610a5a929190610ee4565b506060820151816003019080519060200190610a77929190610ee4565b506080820151816004019080519060200190610a94929190610ee4565b5060a0820151816005015550500390506001839080600181540180825580915050906001820390600052602060002001600090919290919091509080519060200190610ae1929190610f64565b5050816004600083815260200190815260200160002060006101000a81548173ffffffffffffffffffffffffffffffffffffffff021916908373ffffffffffffffffffffffffffffffffffffffff1602179055507f1a2e47a7576212dfa1a41fa92f2b5372681452efcf505064652cb166e3a54de360016040518082815260200191505060405180910390a1610bab565b7f1a2e47a7576212dfa1a41fa92f2b5372681452efcf505064652cb166e3a54de360006040518082815260200191505060405180910390a15b505050505050505050565b60608060008060008060008088815481101515610bcf57fe5b906000526020600020906006020194506004600089815260200190815260200160002060009054906101000a900473ffffffffffffffffffffffffffffffffffffffff169350846005015492506064600254811515610c2a57fe5b048302915081830134141515610cce576040517f08c379a00000000000000000000000000000000000000000000000000000000081526004018080602001828103825260278152602001807f5365207472616e73666972696f206d656e6f732064656c206d6f6e746f20726581526020017f7175657269646f0000000000000000000000000000000000000000000000000081525060400191505060405180910390fd5b8373ffffffffffffffffffffffffffffffffffffffff166108fc849081150290604051600060405180830381858888f19350505050158015610d14573d6000803e3d6000fd5b50600360009054906101000a900473ffffffffffffffffffffffffffffffffffffffff1673ffffffffffffffffffffffffffffffffffffffff166108fc839081150290604051600060405180830381858888f19350505050158015610d7d573d6000803e3d6000fd5b50600188815481101515610d8d57fe5b9060005260206000200190508460040181818054600181600116156101000203166002900480601f016020809104026020016040519081016040528092919081815260200182805460018160011615610100020316600290048015610e335780601f10610e0857610100808354040283529160200191610e33565b820191906000526020600020905b815481529060010190602001808311610e1657829003601f168201915b50505050509150808054600181600116156101000203166002900480601f016020809104026020016040519081016040528092919081815260200182805460018160011615610100020316600290048015610ecf5780601f10610ea457610100808354040283529160200191610ecf565b820191906000526020600020905b815481529060010190602001808311610eb257829003601f168201915b50505050509050965096505050505050915091565b828054600181600116156101000203166002900490600052602060002090601f016020900481019282601f10610f2557805160ff1916838001178555610f53565b82800160010185558215610f53579182015b82811115610f52578251825591602001919060010190610f37565b5b509050610f609190610fe4565b5090565b828054600181600116156101000203166002900490600052602060002090601f016020900481019282601f10610fa557805160ff1916838001178555610fd3565b82800160010185558215610fd3579182015b82811115610fd2578251825591602001919060010190610fb7565b5b509050610fe09190610fe4565b5090565b61100691905b80821115611002576000816000905550600101610fea565b5090565b905600a165627a7a72305820df68fea89e7573a5f689b3081d2a7e299d83c6c2c84b04a82221ecf39d8a93db0029",
  "source": "\r\n// solium-disable linebreak-style\r\npragma solidity ^0.4.19;\r\n\r\ncontract BookFactory {\r\n\r\n    // Eventos\r\n    event bookAdded(int message);\r\n    event bookDownload(string IPFS_hash, string private_key);\r\n\r\n    // Variables globales\r\n    Book[] public books;\r\n    string[] private private_keys;\r\n    uint private comission = 10;\r\n    address private CryptoWattpadAddress;\r\n    mapping (uint => address) public bookToOwner;\r\n\r\n    struct Book {\r\n       // string image;\r\n        string title;\r\n        string author;\r\n        string description;\r\n        string categories;\r\n        string IPFS_hash;\r\n        uint price;\r\n    }\r\n\r\n    \r\n    function uploadBook(string _title, string _author, string _description, string _categories, string _IPFShash, uint _price, string _private_key) public {\r\n        if (_price >= 0 && bytes(_author).length > 0 && bytes(_author).length > 0) {\r\n            address _auth_address = msg.sender;\r\n            uint id = books.push(Book(_title, _author, _description, _categories, _IPFShash, _price)) - 1;\r\n            private_keys.push(_private_key);\r\n            bookToOwner[id] = _auth_address;\r\n            emit bookAdded(1);\r\n        } else { // falla\r\n            emit bookAdded(0);\r\n        }\r\n    }\r\n\r\n    function downloadBook(uint256 _bookId) public payable returns (string, string){\r\n        Book storage _dBook = books[_bookId];\r\n        address _authAddress = bookToOwner[_bookId];\r\n        uint price = _dBook.price;\r\n        uint commisionValue = price*(comission/100);\r\n        require(msg.value == price + commisionValue, \"Se transfirio menos del monto requerido\");\r\n        \r\n        // Repartir ganacias :D\r\n        _authAddress.transfer(price);\r\n        CryptoWattpadAddress.transfer(commisionValue);\r\n        string storage _privateKey = private_keys[_bookId];\r\n        //emit bookDownload(_dBook.IPFS_hash, _privateKey);\r\n        return (_dBook.IPFS_hash, _privateKey);\r\n    }\r\n    \r\n}\r\n",
  "sourcePath": "C:\\Users\\Ale\\Desktop\\tareas\\bitcoin\\CryptoWattpad\\contracts\\CryptoWattpad.sol",
  "compiler": {
    "name": "solc",
    "version": "0.4.24+commit.e67f0147.Emscripten.clang"
  },
  "schemaVersion": "2.0.1",
  "updatedAt": "2018-08-23T23:54:37.392Z"
}