{
  "contractName": "BookFactory",
  "abi": [
    {
      "constant": true,
      "inputs": [
        {
          "name": "",
          "type": "uint256"
        }
      ],
      "name": "bookToOwner",
      "outputs": [
        {
          "name": "",
          "type": "address"
        }
      ],
      "payable": false,
      "stateMutability": "view",
      "type": "function"
    },
    {
      "constant": true,
      "inputs": [
        {
          "name": "",
          "type": "uint256"
        }
      ],
      "name": "books",
      "outputs": [
        {
          "name": "title",
          "type": "string"
        },
        {
          "name": "author",
          "type": "string"
        },
        {
          "name": "description",
          "type": "string"
        },
        {
          "name": "categories",
          "type": "string"
        },
        {
          "name": "IPFS_hash",
          "type": "string"
        },
        {
          "name": "price",
          "type": "uint256"
        }
      ],
      "payable": false,
      "stateMutability": "view",
      "type": "function"
    },
    {
      "anonymous": false,
      "inputs": [
        {
          "indexed": false,
          "name": "message",
          "type": "int256"
        }
      ],
      "name": "bookAdded",
      "type": "event"
    },
    {
      "anonymous": false,
      "inputs": [
        {
          "indexed": false,
          "name": "IPFS_hash",
          "type": "string"
        },
        {
          "indexed": false,
          "name": "private_key",
          "type": "string"
        }
      ],
      "name": "bookDownload",
      "type": "event"
    },
    {
      "constant": false,
      "inputs": [
        {
          "name": "_title",
          "type": "string"
        },
        {
          "name": "_author",
          "type": "string"
        },
        {
          "name": "_description",
          "type": "string"
        },
        {
          "name": "_categories",
          "type": "string"
        },
        {
          "name": "_IPFShash",
          "type": "string"
        },
        {
          "name": "_price",
          "type": "uint256"
        },
        {
          "name": "_private_key",
          "type": "string"
        },
        {
          "name": "_iv",
          "type": "string"
        }
      ],
      "name": "uploadBook",
      "outputs": [],
      "payable": false,
      "stateMutability": "nonpayable",
      "type": "function"
    },
    {
      "constant": false,
      "inputs": [
        {
          "name": "_bookId",
          "type": "uint256"
        }
      ],
      "name": "downloadBook",
      "outputs": [
        {
          "name": "",
          "type": "string"
        },
        {
          "name": "",
          "type": "string"
        },
        {
          "name": "",
          "type": "string"
        }
      ],
      "payable": true,
      "stateMutability": "payable",
      "type": "function"
    }
  ],
  "bytecode": "0x608060405234801561001057600080fd5b50611167806100206000396000f300608060405260043610610062576000357c0100000000000000000000000000000000000000000000000000000000900463ffffffff1680630707d14c1461006757806329461d3c146100d457806368744046146102eb578063e84465d714610548575b600080fd5b34801561007357600080fd5b50610092600480360381019080803590602001909291905050506106b9565b604051808273ffffffffffffffffffffffffffffffffffffffff1673ffffffffffffffffffffffffffffffffffffffff16815260200191505060405180910390f35b3480156100e057600080fd5b506102e9600480360381019080803590602001908201803590602001908080601f0160208091040260200160405190810160405280939291908181526020018383808284378201915050505050509192919290803590602001908201803590602001908080601f0160208091040260200160405190810160405280939291908181526020018383808284378201915050505050509192919290803590602001908201803590602001908080601f0160208091040260200160405190810160405280939291908181526020018383808284378201915050505050509192919290803590602001908201803590602001908080601f0160208091040260200160405190810160405280939291908181526020018383808284378201915050505050509192919290803590602001908201803590602001908080601f016020809104026020016040519081016040528093929190818152602001838380828437820191505050505050919291929080359060200190929190803590602001908201803590602001908080601f0160208091040260200160405190810160405280939291908181526020018383808284378201915050505050509192919290803590602001908201803590602001908080601f01602080910402602001604051908101604052809392919081815260200183838082843782019150505050505091929192905050506106ec565b005b3480156102f757600080fd5b5061031660048036038101908080359060200190929190505050610965565b60405180806020018060200180602001806020018060200187815260200186810386528c818151815260200191508051906020019080838360005b8381101561036c578082015181840152602081019050610351565b50505050905090810190601f1680156103995780820380516001836020036101000a031916815260200191505b5086810385528b818151815260200191508051906020019080838360005b838110156103d25780820151818401526020810190506103b7565b50505050905090810190601f1680156103ff5780820380516001836020036101000a031916815260200191505b5086810384528a818151815260200191508051906020019080838360005b8381101561043857808201518184015260208101905061041d565b50505050905090810190601f1680156104655780820380516001836020036101000a031916815260200191505b50868103835289818151815260200191508051906020019080838360005b8381101561049e578082015181840152602081019050610483565b50505050905090810190601f1680156104cb5780820380516001836020036101000a031916815260200191505b50868103825288818151815260200191508051906020019080838360005b838110156105045780820151818401526020810190506104e9565b50505050905090810190601f1680156105315780820380516001836020036101000a031916815260200191505b509b50505050505050505050505060405180910390f35b61056660048036038101908080359060200190929190505050610ca8565b60405180806020018060200180602001848103845287818151815260200191508051906020019080838360005b838110156105ae578082015181840152602081019050610593565b50505050905090810190601f1680156105db5780820380516001836020036101000a031916815260200191505b50848103835286818151815260200191508051906020019080838360005b838110156106145780820151818401526020810190506105f9565b50505050905090810190601f1680156106415780820380516001836020036101000a031916815260200191505b50848103825285818151815260200191508051906020019080838360005b8381101561067a57808201518184015260208101905061065f565b50505050905090810190601f1680156106a75780820380516001836020036101000a031916815260200191505b50965050505050505060405180910390f35b60036020528060005260406000206000915054906101000a900473ffffffffffffffffffffffffffffffffffffffff1681565b60008060008510158015610701575060008951115b801561070e575060008951115b15610920573391506001600060c0604051908101604052808d81526020018c81526020018b81526020018a81526020018981526020018881525090806001815401808255809150509060018203906000526020600020906006020160009091929091909150600082015181600001908051906020019061078f929190611016565b5060208201518160010190805190602001906107ac929190611016565b5060408201518160020190805190602001906107c9929190611016565b5060608201518160030190805190602001906107e6929190611016565b506080820151816004019080519060200190610803929190611016565b5060a0820151816005015550500390506001849080600181540180825580915050906001820390600052602060002001600090919290919091509080519060200190610850929190611096565b5050600283908060018154018082558091505090600182039060005260206000200160009091929091909150908051906020019061088f929190611096565b5050816003600083815260200190815260200160002060006101000a81548173ffffffffffffffffffffffffffffffffffffffff021916908373ffffffffffffffffffffffffffffffffffffffff1602179055507f1a2e47a7576212dfa1a41fa92f2b5372681452efcf505064652cb166e3a54de360016040518082815260200191505060405180910390a1610959565b7f1a2e47a7576212dfa1a41fa92f2b5372681452efcf505064652cb166e3a54de360006040518082815260200191505060405180910390a15b50505050505050505050565b60008181548110151561097457fe5b9060005260206000209060060201600091509050806000018054600181600116156101000203166002900480601f016020809104026020016040519081016040528092919081815260200182805460018160011615610100020316600290048015610a205780601f106109f557610100808354040283529160200191610a20565b820191906000526020600020905b815481529060010190602001808311610a0357829003601f168201915b505050505090806001018054600181600116156101000203166002900480601f016020809104026020016040519081016040528092919081815260200182805460018160011615610100020316600290048015610abe5780601f10610a9357610100808354040283529160200191610abe565b820191906000526020600020905b815481529060010190602001808311610aa157829003601f168201915b505050505090806002018054600181600116156101000203166002900480601f016020809104026020016040519081016040528092919081815260200182805460018160011615610100020316600290048015610b5c5780601f10610b3157610100808354040283529160200191610b5c565b820191906000526020600020905b815481529060010190602001808311610b3f57829003601f168201915b505050505090806003018054600181600116156101000203166002900480601f016020809104026020016040519081016040528092919081815260200182805460018160011615610100020316600290048015610bfa5780601f10610bcf57610100808354040283529160200191610bfa565b820191906000526020600020905b815481529060010190602001808311610bdd57829003601f168201915b505050505090806004018054600181600116156101000203166002900480601f016020809104026020016040519081016040528092919081815260200182805460018160011615610100020316600290048015610c985780601f10610c6d57610100808354040283529160200191610c98565b820191906000526020600020905b815481529060010190602001808311610c7b57829003601f168201915b5050505050908060050154905086565b606080606060008060008060008089815481101515610cc357fe5b90600052602060002090600602019450600360008a815260200190815260200160002060009054906101000a900473ffffffffffffffffffffffffffffffffffffffff169350846005015492508234141515610dad576040517f08c379a00000000000000000000000000000000000000000000000000000000081526004018080602001828103825260278152602001807f5365207472616e73666972696f206d656e6f732064656c206d6f6e746f20726581526020017f7175657269646f0000000000000000000000000000000000000000000000000081525060400191505060405180910390fd5b8373ffffffffffffffffffffffffffffffffffffffff166108fc849081150290604051600060405180830381858888f19350505050158015610df3573d6000803e3d6000fd5b50600189815481101515610e0357fe5b906000526020600020019150600289815481101515610e1e57fe5b906000526020600020019050846004018282828054600181600116156101000203166002900480601f016020809104026020016040519081016040528092919081815260200182805460018160011615610100020316600290048015610ec55780601f10610e9a57610100808354040283529160200191610ec5565b820191906000526020600020905b815481529060010190602001808311610ea857829003601f168201915b50505050509250818054600181600116156101000203166002900480601f016020809104026020016040519081016040528092919081815260200182805460018160011615610100020316600290048015610f615780601f10610f3657610100808354040283529160200191610f61565b820191906000526020600020905b815481529060010190602001808311610f4457829003601f168201915b50505050509150808054600181600116156101000203166002900480601f016020809104026020016040519081016040528092919081815260200182805460018160011615610100020316600290048015610ffd5780601f10610fd257610100808354040283529160200191610ffd565b820191906000526020600020905b815481529060010190602001808311610fe057829003601f168201915b5050505050905097509750975050505050509193909250565b828054600181600116156101000203166002900490600052602060002090601f016020900481019282601f1061105757805160ff1916838001178555611085565b82800160010185558215611085579182015b82811115611084578251825591602001919060010190611069565b5b5090506110929190611116565b5090565b828054600181600116156101000203166002900490600052602060002090601f016020900481019282601f106110d757805160ff1916838001178555611105565b82800160010185558215611105579182015b828111156111045782518255916020019190600101906110e9565b5b5090506111129190611116565b5090565b61113891905b8082111561113457600081600090555060010161111c565b5090565b905600a165627a7a72305820cdfaffc0fb832b3499c5db597e8d3e4dbb5428bad1e97c7283b630bfe1b9172d0029",
  "source": "// solium-disable linebreak-style\r\npragma solidity ^0.4.19;\r\n\r\ncontract BookFactory {\r\n\r\n    // Eventos\r\n    event bookAdded(int message);\r\n    event bookDownload(string IPFS_hash, string private_key);\r\n\r\n    // Variables globales\r\n    Book[] public books;\r\n    string[] private private_keys;\r\n    string[] private ivs;\r\n    mapping (uint => address) public bookToOwner;\r\n\r\n    struct Book {\r\n       // string image;\r\n        string title;\r\n        string author;\r\n        string description;\r\n        string categories;\r\n        string IPFS_hash;\r\n        uint price;\r\n    }\r\n\r\n    \r\n    function uploadBook(string _title, string _author, string _description, string _categories, string _IPFShash, uint _price, string _private_key, string _iv) public {\r\n        if (_price >= 0 && bytes(_author).length > 0 && bytes(_author).length > 0) {\r\n            address _auth_address = msg.sender;\r\n            uint id = books.push(Book(_title, _author, _description, _categories, _IPFShash, _price)) - 1;\r\n            private_keys.push(_private_key);\r\n            ivs.push(_iv);\r\n            bookToOwner[id] = _auth_address;\r\n            emit bookAdded(1);\r\n        } else { // falla\r\n            emit bookAdded(0);\r\n        }\r\n    }\r\n\r\n    function downloadBook(uint256 _bookId) public payable returns (string, string, string){\r\n        Book storage _dBook = books[_bookId];\r\n        address _authAddress = bookToOwner[_bookId];\r\n        uint price = _dBook.price;\r\n        require(msg.value == price, \"Se transfirio menos del monto requerido\");\r\n        \r\n        // Repartir ganacias :D\r\n        _authAddress.transfer(price);\r\n        string storage _privateKey = private_keys[_bookId];\r\n        string storage _iv = ivs[_bookId];\r\n        return (_dBook.IPFS_hash, _privateKey, _iv);\r\n    }\r\n    \r\n}\r\n",
  "sourcePath": "C:\\Users\\Ale\\Desktop\\tareas\\bitcoin\\CryptoWattpad\\contracts\\CryptoWattpad.sol",
  "compiler": {
    "name": "solc",
    "version": "0.4.24+commit.e67f0147.Emscripten.clang"
  },
  "schemaVersion": "2.0.1",
  "updatedAt": "2018-08-24T05:04:45.916Z"
}