{
  "contractName": "BookFactory",
  "abi": [
    {
      "constant": true,
      "inputs": [
        {
          "name": "",
          "type": "uint256"
        }
      ],
      "name": "books",
      "outputs": [
        {
          "name": "title",
          "type": "string"
        },
        {
          "name": "author",
          "type": "string"
        },
        {
          "name": "description",
          "type": "string"
        },
        {
          "name": "categories",
          "type": "string"
        },
        {
          "name": "IPFS_hash",
          "type": "string"
        },
        {
          "name": "auth_address",
          "type": "address"
        },
        {
          "name": "price",
          "type": "uint256"
        }
      ],
      "payable": false,
      "stateMutability": "view",
      "type": "function"
    },
    {
      "anonymous": false,
      "inputs": [
        {
          "indexed": false,
          "name": "message",
          "type": "int256"
        }
      ],
      "name": "bookAdded",
      "type": "event"
    },
    {
      "anonymous": false,
      "inputs": [
        {
          "indexed": false,
          "name": "IPFS_hash",
          "type": "string"
        },
        {
          "indexed": false,
          "name": "private_key",
          "type": "string"
        }
      ],
      "name": "bookDownload",
      "type": "event"
    },
    {
      "constant": false,
      "inputs": [
        {
          "name": "_title",
          "type": "string"
        },
        {
          "name": "_author",
          "type": "string"
        },
        {
          "name": "_description",
          "type": "string"
        },
        {
          "name": "_categories",
          "type": "string"
        },
        {
          "name": "_IPFShash",
          "type": "string"
        },
        {
          "name": "_price",
          "type": "uint256"
        },
        {
          "name": "_private_key",
          "type": "string"
        }
      ],
      "name": "uploadBook",
      "outputs": [],
      "payable": false,
      "stateMutability": "nonpayable",
      "type": "function"
    },
    {
      "constant": false,
      "inputs": [
        {
          "name": "_bookId",
          "type": "uint256"
        }
      ],
      "name": "downloadBook",
      "outputs": [],
      "payable": true,
      "stateMutability": "payable",
      "type": "function"
    }
  ],
  "bytecode": "0x6080604052600a60025534801561001557600080fd5b50610ef9806100256000396000f300608060405260043610610057576000357c0100000000000000000000000000000000000000000000000000000000900463ffffffff168063687440461461005c5780638dc3ae08146102ec578063e84465d7146104bd575b600080fd5b34801561006857600080fd5b50610087600480360381019080803590602001909291905050506104dd565b6040518080602001806020018060200180602001806020018873ffffffffffffffffffffffffffffffffffffffff1673ffffffffffffffffffffffffffffffffffffffff16815260200187815260200186810386528d818151815260200191508051906020019080838360005b8381101561010f5780820151818401526020810190506100f4565b50505050905090810190601f16801561013c5780820380516001836020036101000a031916815260200191505b5086810385528c818151815260200191508051906020019080838360005b8381101561017557808201518184015260208101905061015a565b50505050905090810190601f1680156101a25780820380516001836020036101000a031916815260200191505b5086810384528b818151815260200191508051906020019080838360005b838110156101db5780820151818401526020810190506101c0565b50505050905090810190601f1680156102085780820380516001836020036101000a031916815260200191505b5086810383528a818151815260200191508051906020019080838360005b83811015610241578082015181840152602081019050610226565b50505050905090810190601f16801561026e5780820380516001836020036101000a031916815260200191505b50868103825289818151815260200191508051906020019080838360005b838110156102a757808201518184015260208101905061028c565b50505050905090810190601f1680156102d45780820380516001836020036101000a031916815260200191505b509c5050505050505050505050505060405180910390f35b3480156102f857600080fd5b506104bb600480360381019080803590602001908201803590602001908080601f0160208091040260200160405190810160405280939291908181526020018383808284378201915050505050509192919290803590602001908201803590602001908080601f0160208091040260200160405190810160405280939291908181526020018383808284378201915050505050509192919290803590602001908201803590602001908080601f0160208091040260200160405190810160405280939291908181526020018383808284378201915050505050509192919290803590602001908201803590602001908080601f0160208091040260200160405190810160405280939291908181526020018383808284378201915050505050509192919290803590602001908201803590602001908080601f016020809104026020016040519081016040528093929190818152602001838380828437820191505050505050919291929080359060200190929190803590602001908201803590602001908080601f0160208091040260200160405190810160405280939291908181526020018383808284378201915050505050509192919290505050610846565b005b6104db60048036038101908080359060200190929190505050610a89565b005b6000818154811015156104ec57fe5b9060005260206000209060070201600091509050806000018054600181600116156101000203166002900480601f0160208091040260200160405190810160405280929190818152602001828054600181600116156101000203166002900480156105985780601f1061056d57610100808354040283529160200191610598565b820191906000526020600020905b81548152906001019060200180831161057b57829003601f168201915b505050505090806001018054600181600116156101000203166002900480601f0160208091040260200160405190810160405280929190818152602001828054600181600116156101000203166002900480156106365780601f1061060b57610100808354040283529160200191610636565b820191906000526020600020905b81548152906001019060200180831161061957829003601f168201915b505050505090806002018054600181600116156101000203166002900480601f0160208091040260200160405190810160405280929190818152602001828054600181600116156101000203166002900480156106d45780601f106106a9576101008083540402835291602001916106d4565b820191906000526020600020905b8154815290600101906020018083116106b757829003601f168201915b505050505090806003018054600181600116156101000203166002900480601f0160208091040260200160405190810160405280929190818152602001828054600181600116156101000203166002900480156107725780601f1061074757610100808354040283529160200191610772565b820191906000526020600020905b81548152906001019060200180831161075557829003601f168201915b505050505090806004018054600181600116156101000203166002900480601f0160208091040260200160405190810160405280929190818152602001828054600181600116156101000203166002900480156108105780601f106107e557610100808354040283529160200191610810565b820191906000526020600020905b8154815290600101906020018083116107f357829003601f168201915b5050505050908060050160009054906101000a900473ffffffffffffffffffffffffffffffffffffffff16908060060154905087565b6000808310158015610859575060008751115b8015610866575060008751115b15610a4657339050600060e0604051908101604052808a81526020018981526020018881526020018781526020018681526020018373ffffffffffffffffffffffffffffffffffffffff16815260200185815250908060018154018082558091505090600182039060005260206000209060070201600090919290919091506000820151816000019080519060200190610901929190610da8565b50602082015181600101908051906020019061091e929190610da8565b50604082015181600201908051906020019061093b929190610da8565b506060820151816003019080519060200190610958929190610da8565b506080820151816004019080519060200190610975929190610da8565b5060a08201518160050160006101000a81548173ffffffffffffffffffffffffffffffffffffffff021916908373ffffffffffffffffffffffffffffffffffffffff16021790555060c082015181600601555050506001829080600181540180825580915050906001820390600052602060002001600090919290919091509080519060200190610a07929190610e28565b50507f1a2e47a7576212dfa1a41fa92f2b5372681452efcf505064652cb166e3a54de360016040518082815260200191505060405180910390a1610a7f565b7f1a2e47a7576212dfa1a41fa92f2b5372681452efcf505064652cb166e3a54de360006040518082815260200191505060405180910390a15b5050505050505050565b60008060008060008086815481101515610a9f57fe5b906000526020600020906007020194508460050160009054906101000a900473ffffffffffffffffffffffffffffffffffffffff169350846006015492506064600254811515610aeb57fe5b048302915081830134141515610b8f576040517f08c379a00000000000000000000000000000000000000000000000000000000081526004018080602001828103825260278152602001807f5365207472616e73666972696f206d656e6f732064656c206d6f6e746f20726581526020017f7175657269646f0000000000000000000000000000000000000000000000000081525060400191505060405180910390fd5b8373ffffffffffffffffffffffffffffffffffffffff166108fc849081150290604051600060405180830381858888f19350505050158015610bd5573d6000803e3d6000fd5b50600360009054906101000a900473ffffffffffffffffffffffffffffffffffffffff1673ffffffffffffffffffffffffffffffffffffffff166108fc839081150290604051600060405180830381858888f19350505050158015610c3e573d6000803e3d6000fd5b50600186815481101515610c4e57fe5b9060005260206000200190507f07ecc7a2f05eddc43edff5a17acc86a2202fa3ec62995fe70e38cd8b6a1378c98560040182604051808060200180602001838103835285818154600181600116156101000203166002900481526020019150805460018160011615610100020316600290048015610d0d5780601f10610ce257610100808354040283529160200191610d0d565b820191906000526020600020905b815481529060010190602001808311610cf057829003601f168201915b5050838103825284818154600181600116156101000203166002900481526020019150805460018160011615610100020316600290048015610d905780601f10610d6557610100808354040283529160200191610d90565b820191906000526020600020905b815481529060010190602001808311610d7357829003601f168201915b505094505050505060405180910390a1505050505050565b828054600181600116156101000203166002900490600052602060002090601f016020900481019282601f10610de957805160ff1916838001178555610e17565b82800160010185558215610e17579182015b82811115610e16578251825591602001919060010190610dfb565b5b509050610e249190610ea8565b5090565b828054600181600116156101000203166002900490600052602060002090601f016020900481019282601f10610e6957805160ff1916838001178555610e97565b82800160010185558215610e97579182015b82811115610e96578251825591602001919060010190610e7b565b5b509050610ea49190610ea8565b5090565b610eca91905b80821115610ec6576000816000905550600101610eae565b5090565b905600a165627a7a72305820608fabde0b1ed030ffde92af68ddc4cc46a6be1b6211f4b5c0cfbee3f50acd930029",
  "source": "\r\n// solium-disable linebreak-style\r\npragma solidity ^0.4.19;\r\n\r\ncontract BookFactory {\r\n\r\n    // Eventos\r\n    event bookAdded(int message);\r\n    event bookDownload(string IPFS_hash, string private_key);\r\n\r\n    // Variables globales\r\n    Book[] public books;\r\n    string[] private private_keys;\r\n    uint private comission = 10;\r\n    address private CryptoWattpadAddress;\r\n\r\n    struct Book {\r\n       // string image;\r\n        string title;\r\n        string author;\r\n        string description;\r\n        string categories;\r\n        string IPFS_hash;\r\n        address auth_address;\r\n        uint price;\r\n    }\r\n\r\n    \r\n    function uploadBook(string _title, string _author, string _description, string _categories, string _IPFShash, uint _price, string _private_key) public {\r\n        if (_price >= 0 && bytes(_author).length > 0 && bytes(_author).length > 0) {\r\n            address _auth_address = msg.sender;\r\n            books.push(Book(_title, _author, _description, _categories, _IPFShash, _auth_address, _price));\r\n            private_keys.push(_private_key);\r\n            emit bookAdded(1);\r\n        } else { // falla\r\n            emit bookAdded(0);\r\n        }\r\n    }\r\n\r\n    function downloadBook(uint256 _bookId) public payable {\r\n        Book storage _dBook = books[_bookId];\r\n        address _authAddress = _dBook.auth_address;\r\n        uint price = _dBook.price;\r\n        uint commisionValue = price*(comission/100);\r\n        require(msg.value == price + commisionValue, \"Se transfirio menos del monto requerido\");\r\n        \r\n        // Repartir ganacias :D\r\n        _authAddress.transfer(price);\r\n        CryptoWattpadAddress.transfer(commisionValue);\r\n        string storage _privateKey = private_keys[_bookId];\r\n        emit bookDownload(_dBook.IPFS_hash, _privateKey);\r\n    }\r\n    \r\n}\r\n",
  "sourcePath": "C:\\Users\\Ale\\Desktop\\tareas\\bitcoin\\CryptoWattpad\\contracts\\CryptoWattpad.sol",
  "compiler": {
    "name": "solc",
    "version": "0.4.24+commit.e67f0147.Emscripten.clang"
  },
  "schemaVersion": "2.0.1",
  "updatedAt": "2018-08-22T20:47:00.918Z"
}